{
  "_format": "hh-sol-artifact-1",
  "contractName": "Forwarder",
  "sourceName": "contracts/Forwarder.sol",
  "abi": [
    {
      "inputs": [],
      "stateMutability": "nonpayable",
      "type": "constructor"
    },
    {
      "inputs": [
        {
          "internalType": "uint48",
          "name": "deadline",
          "type": "uint48"
        }
      ],
      "name": "ERC2771ForwarderExpiredRequest",
      "type": "error"
    },
    {
      "inputs": [
        {
          "internalType": "address",
          "name": "signer",
          "type": "address"
        },
        {
          "internalType": "address",
          "name": "from",
          "type": "address"
        }
      ],
      "name": "ERC2771ForwarderInvalidSigner",
      "type": "error"
    },
    {
      "inputs": [
        {
          "internalType": "uint256",
          "name": "requestedValue",
          "type": "uint256"
        },
        {
          "internalType": "uint256",
          "name": "msgValue",
          "type": "uint256"
        }
      ],
      "name": "ERC2771ForwarderMismatchedValue",
      "type": "error"
    },
    {
      "inputs": [
        {
          "internalType": "address",
          "name": "target",
          "type": "address"
        },
        {
          "internalType": "address",
          "name": "forwarder",
          "type": "address"
        }
      ],
      "name": "ERC2771UntrustfulTarget",
      "type": "error"
    },
    {
      "inputs": [],
      "name": "FailedCall",
      "type": "error"
    },
    {
      "inputs": [
        {
          "internalType": "uint256",
          "name": "balance",
          "type": "uint256"
        },
        {
          "internalType": "uint256",
          "name": "needed",
          "type": "uint256"
        }
      ],
      "name": "InsufficientBalance",
      "type": "error"
    },
    {
      "inputs": [
        {
          "internalType": "address",
          "name": "account",
          "type": "address"
        },
        {
          "internalType": "uint256",
          "name": "currentNonce",
          "type": "uint256"
        }
      ],
      "name": "InvalidAccountNonce",
      "type": "error"
    },
    {
      "inputs": [],
      "name": "InvalidShortString",
      "type": "error"
    },
    {
      "inputs": [
        {
          "internalType": "string",
          "name": "str",
          "type": "string"
        }
      ],
      "name": "StringTooLong",
      "type": "error"
    },
    {
      "anonymous": false,
      "inputs": [],
      "name": "EIP712DomainChanged",
      "type": "event"
    },
    {
      "anonymous": false,
      "inputs": [
        {
          "indexed": true,
          "internalType": "address",
          "name": "signer",
          "type": "address"
        },
        {
          "indexed": false,
          "internalType": "uint256",
          "name": "nonce",
          "type": "uint256"
        },
        {
          "indexed": false,
          "internalType": "bool",
          "name": "success",
          "type": "bool"
        }
      ],
      "name": "ExecutedForwardRequest",
      "type": "event"
    },
    {
      "inputs": [],
      "name": "eip712Domain",
      "outputs": [
        {
          "internalType": "bytes1",
          "name": "fields",
          "type": "bytes1"
        },
        {
          "internalType": "string",
          "name": "name",
          "type": "string"
        },
        {
          "internalType": "string",
          "name": "version",
          "type": "string"
        },
        {
          "internalType": "uint256",
          "name": "chainId",
          "type": "uint256"
        },
        {
          "internalType": "address",
          "name": "verifyingContract",
          "type": "address"
        },
        {
          "internalType": "bytes32",
          "name": "salt",
          "type": "bytes32"
        },
        {
          "internalType": "uint256[]",
          "name": "extensions",
          "type": "uint256[]"
        }
      ],
      "stateMutability": "view",
      "type": "function"
    },
    {
      "inputs": [
        {
          "components": [
            {
              "internalType": "address",
              "name": "from",
              "type": "address"
            },
            {
              "internalType": "address",
              "name": "to",
              "type": "address"
            },
            {
              "internalType": "uint256",
              "name": "value",
              "type": "uint256"
            },
            {
              "internalType": "uint256",
              "name": "gas",
              "type": "uint256"
            },
            {
              "internalType": "uint48",
              "name": "deadline",
              "type": "uint48"
            },
            {
              "internalType": "bytes",
              "name": "data",
              "type": "bytes"
            },
            {
              "internalType": "bytes",
              "name": "signature",
              "type": "bytes"
            }
          ],
          "internalType": "struct ERC2771Forwarder.ForwardRequestData",
          "name": "request",
          "type": "tuple"
        }
      ],
      "name": "execute",
      "outputs": [],
      "stateMutability": "payable",
      "type": "function"
    },
    {
      "inputs": [
        {
          "components": [
            {
              "internalType": "address",
              "name": "from",
              "type": "address"
            },
            {
              "internalType": "address",
              "name": "to",
              "type": "address"
            },
            {
              "internalType": "uint256",
              "name": "value",
              "type": "uint256"
            },
            {
              "internalType": "uint256",
              "name": "gas",
              "type": "uint256"
            },
            {
              "internalType": "uint48",
              "name": "deadline",
              "type": "uint48"
            },
            {
              "internalType": "bytes",
              "name": "data",
              "type": "bytes"
            },
            {
              "internalType": "bytes",
              "name": "signature",
              "type": "bytes"
            }
          ],
          "internalType": "struct ERC2771Forwarder.ForwardRequestData[]",
          "name": "requests",
          "type": "tuple[]"
        },
        {
          "internalType": "address payable",
          "name": "refundReceiver",
          "type": "address"
        }
      ],
      "name": "executeBatch",
      "outputs": [],
      "stateMutability": "payable",
      "type": "function"
    },
    {
      "inputs": [
        {
          "internalType": "address",
          "name": "owner",
          "type": "address"
        }
      ],
      "name": "nonces",
      "outputs": [
        {
          "internalType": "uint256",
          "name": "",
          "type": "uint256"
        }
      ],
      "stateMutability": "view",
      "type": "function"
    },
    {
      "inputs": [
        {
          "components": [
            {
              "internalType": "address",
              "name": "from",
              "type": "address"
            },
            {
              "internalType": "address",
              "name": "to",
              "type": "address"
            },
            {
              "internalType": "uint256",
              "name": "value",
              "type": "uint256"
            },
            {
              "internalType": "uint256",
              "name": "gas",
              "type": "uint256"
            },
            {
              "internalType": "uint48",
              "name": "deadline",
              "type": "uint48"
            },
            {
              "internalType": "bytes",
              "name": "data",
              "type": "bytes"
            },
            {
              "internalType": "bytes",
              "name": "signature",
              "type": "bytes"
            }
          ],
          "internalType": "struct ERC2771Forwarder.ForwardRequestData",
          "name": "request",
          "type": "tuple"
        }
      ],
      "name": "verify",
      "outputs": [
        {
          "internalType": "bool",
          "name": "",
          "type": "bool"
        }
      ],
      "stateMutability": "view",
      "type": "function"
    }
  ],
  "bytecode": "0x61016060405234801561001157600080fd5b506040518060400160405280600981526020017f466f727761726465720000000000000000000000000000000000000000000000815250806040518060400160405280600181526020017f310000000000000000000000000000000000000000000000000000000000000081525061009360008361012f60201b90919060201c565b61012081815250506100af60018261012f60201b90919060201c565b6101408181525050818051906020012060e08181525050808051906020012061010081815250504660a081815250506100ec61017f60201b60201c565b608081815250503073ffffffffffffffffffffffffffffffffffffffff1660c08173ffffffffffffffffffffffffffffffffffffffff1681525050505050610768565b60006020835110156101515761014a836101da60201b60201c565b9050610179565b826101618361024260201b60201c565b6000019081610170919061049c565b5060ff60001b90505b92915050565b60007f8b73c3c69bb8fe3d512ecc4cf759cc79239f7b179b0ffacaa9a75d522b39400f60e0516101005146306040516020016101bf9594939291906105d7565b60405160208183030381529060405280519060200120905090565b600080829050601f8151111561022757826040517f305a27a900000000000000000000000000000000000000000000000000000000815260040161021e91906106af565b60405180910390fd5b80518161023390610701565b60001c1760001b915050919050565b6000819050919050565b600081519050919050565b7f4e487b7100000000000000000000000000000000000000000000000000000000600052604160045260246000fd5b7f4e487b7100000000000000000000000000000000000000000000000000000000600052602260045260246000fd5b600060028204905060018216806102cd57607f821691505b6020821081036102e0576102df610286565b5b50919050565b60008190508160005260206000209050919050565b60006020601f8301049050919050565b600082821b905092915050565b6000600883026103487fffffffffffffffffffffffffffffffffffffffffffffffffffffffffffffffff8261030b565b610352868361030b565b95508019841693508086168417925050509392505050565b6000819050919050565b6000819050919050565b600061039961039461038f8461036a565b610374565b61036a565b9050919050565b6000819050919050565b6103b38361037e565b6103c76103bf826103a0565b848454610318565b825550505050565b600090565b6103dc6103cf565b6103e78184846103aa565b505050565b5b8181101561040b576104006000826103d4565b6001810190506103ed565b5050565b601f82111561045057610421816102e6565b61042a846102fb565b81016020851015610439578190505b61044d610445856102fb565b8301826103ec565b50505b505050565b600082821c905092915050565b600061047360001984600802610455565b1980831691505092915050565b600061048c8383610462565b9150826002028217905092915050565b6104a58261024c565b67ffffffffffffffff8111156104be576104bd610257565b5b6104c882546102b5565b6104d382828561040f565b600060209050601f83116001811461050657600084156104f4578287015190505b6104fe8582610480565b865550610566565b601f198416610514866102e6565b60005b8281101561053c57848901518255600182019150602085019450602081019050610517565b868310156105595784890151610555601f891682610462565b8355505b6001600288020188555050505b505050505050565b6000819050919050565b6105818161056e565b82525050565b6105908161036a565b82525050565b600073ffffffffffffffffffffffffffffffffffffffff82169050919050565b60006105c182610596565b9050919050565b6105d1816105b6565b82525050565b600060a0820190506105ec6000830188610578565b6105f96020830187610578565b6106066040830186610578565b6106136060830185610587565b61062060808301846105c8565b9695505050505050565b600082825260208201905092915050565b60005b8381101561065957808201518184015260208101905061063e565b60008484015250505050565b6000601f19601f8301169050919050565b60006106818261024c565b61068b818561062a565b935061069b81856020860161063b565b6106a481610665565b840191505092915050565b600060208201905081810360008301526106c98184610676565b905092915050565b600081519050919050565b6000819050602082019050919050565b60006106f8825161056e565b80915050919050565b600061070c826106d1565b82610716846106dc565b9050610721816106ec565b925060208210156107615761075c7fffffffffffffffffffffffffffffffffffffffffffffffffffffffffffffffff8360200360080261030b565b831692505b5050919050565b60805160a05160c05160e051610100516101205161014051611a256107c2600039600061052f015260006104f401526000610f4f01526000610f2e01526000610cd101526000610d2701526000610d500152611a256000f3fe60806040526004361061004a5760003560e01c806319d8d38c1461004f5780637ecebe001461008c57806384b0196e146100c9578063ccf96b4a146100fa578063df905caf14610116575b600080fd5b34801561005b57600080fd5b5061007660048036038101906100719190610fcd565b610132565b6040516100839190611031565b60405180910390f35b34801561009857600080fd5b506100b360048036038101906100ae91906110aa565b610165565b6040516100c091906110f0565b60405180910390f35b3480156100d557600080fd5b506100de6101ae565b6040516100f197969594939291906112bc565b60405180910390f35b610114600480360381019061010f91906113e3565b610258565b005b610130600480360381019061012b9190610fcd565b6103ae565b005b60008060008061014185610440565b509250925092508280156101525750815b801561015b5750805b9350505050919050565b6000600260008373ffffffffffffffffffffffffffffffffffffffff1673ffffffffffffffffffffffffffffffffffffffff168152602001908152602001600020549050919050565b6000606080600080600060606101c26104eb565b6101ca610526565b46306000801b600067ffffffffffffffff8111156101eb576101ea611443565b5b6040519080825280602002602001820160405280156102195781602001602082028036833780820191505090505b507f0f00000000000000000000000000000000000000000000000000000000000000959493929190965096509650965096509650965090919293949596565b60008073ffffffffffffffffffffffffffffffffffffffff168273ffffffffffffffffffffffffffffffffffffffff1614905060008060005b8686905081101561034c578686828181106102af576102ae611472565b5b90506020028101906102c191906114b0565b60400135836102d09190611507565b925060006103028888848181106102ea576102e9611472565b5b90506020028101906102fc91906114b0565b86610561565b9050806103405787878381811061031c5761031b611472565b5b905060200281019061032e91906114b0565b604001358361033d9190611507565b92505b50806001019050610291565b503482146103935781346040517f70647f7900000000000000000000000000000000000000000000000000000000815260040161038a92919061153b565b60405180910390fd5b600081146103a6576103a58482610796565b5b505050505050565b806040013534146103fc578060400135346040517f70647f790000000000000000000000000000000000000000000000000000000081526004016103f392919061153b565b60405180910390fd5b610407816001610561565b61043d576040517fd6bda27500000000000000000000000000000000000000000000000000000000815260040160405180910390fd5b50565b60008060008060008061045287610860565b9150915061047187602001602081019061046c91906110aa565b6109dd565b4288608001602081019061048591906115a2565b65ffffffffffff1610158380156104d957508860000160208101906104aa91906110aa565b73ffffffffffffffffffffffffffffffffffffffff168373ffffffffffffffffffffffffffffffffffffffff16145b83955095509550955050509193509193565b606061052160007f0000000000000000000000000000000000000000000000000000000000000000610a7990919063ffffffff16565b905090565b606061055c60017f0000000000000000000000000000000000000000000000000000000000000000610a7990919063ffffffff16565b905090565b600080600080600061057287610440565b9350935093509350851561068157836105d65786602001602081019061059891906110aa565b306040517fd2650cd10000000000000000000000000000000000000000000000000000000081526004016105cd9291906115cf565b60405180910390fd5b8261062a578660800160208101906105ee91906115a2565b6040517f94eef58a0000000000000000000000000000000000000000000000000000000081526004016106219190611607565b60405180910390fd5b81610680578087600001602081019061064391906110aa565b6040517fc845a0560000000000000000000000000000000000000000000000000000000081526004016106779291906115cf565b60405180910390fd5b5b83801561068b5750815b80156106945750825b1561078c5760006106a482610b29565b905060008860600135905060008960200160208101906106c491906110aa565b905060008a60400135905060008b8060a001906106e19190611622565b8d60000160208101906106f491906110aa565b6040516020016107069392919061170c565b6040516020818303038152906040529050600080600083516020850186888af19a505a9050610735818e610b80565b8673ffffffffffffffffffffffffffffffffffffffff167f842fb24a83793558587a3dab2be7674da4a51d09c5542d6dd354e5d0ea70813c878d60405161077d929190611736565b60405180910390a25050505050505b5050505092915050565b804710156107dd5747816040517fcf4791810000000000000000000000000000000000000000000000000000000081526004016107d492919061153b565b60405180910390fd5b6000808373ffffffffffffffffffffffffffffffffffffffff168360405161080490611785565b60006040518083038185875af1925050503d8060008114610841576040519150601f19603f3d011682016040523d82523d6000602084013e610846565b606091505b50915091508161085a5761085981610b9e565b5b50505050565b6000806000806109a4858060c001906108799190611622565b8080601f016020809104026020016040519081016040528093929190818152602001838380828437600081840152601f19601f820116905080830192505050505050506109967f7f96328b83274ebc7c1cf4f7a3abda602b51a78b7fa1d86a2ce353d75e587cac8860000160208101906108f391906110aa565b89602001602081019061090691906110aa565b8a604001358b6060013561092b8d600001602081019061092691906110aa565b610165565b8d608001602081019061093e91906115a2565b8e8060a0019061094e9190611622565b60405161095c92919061179a565b604051809103902060405160200161097b9897969594939291906117b3565b60405160208183030381529060405280519060200120610be3565b610bfd90919063ffffffff16565b5091509150600060038111156109bd576109bc611831565b5b8160038111156109d0576109cf611831565b5b1482935093505050915091565b600080306040516024016109f19190611860565b60405160208183030381529060405263572b6c0560e01b6020820180517bffffffffffffffffffffffffffffffffffffffffffffffffffffffff83818316178352505050509050600080600060206000855160208701895afa92503d91506000519050828015610a62575060208210155b8015610a6e5750600081115b945050505050919050565b606060ff60001b8314610a9657610a8f83610c59565b9050610b23565b818054610aa2906118aa565b80601f0160208091040260200160405190810160405280929190818152602001828054610ace906118aa565b8015610b1b5780601f10610af057610100808354040283529160200191610b1b565b820191906000526020600020905b815481529060010190602001808311610afe57829003601f168201915b505050505090505b92915050565b6000600260008373ffffffffffffffffffffffffffffffffffffffff1673ffffffffffffffffffffffffffffffffffffffff1681526020019081526020016000206000815480929190600101919050559050919050565b603f8160600135610b91919061190a565b821015610b9a57fe5b5050565b600081511115610bb15780518082602001fd5b6040517fd6bda27500000000000000000000000000000000000000000000000000000000815260040160405180910390fd5b6000610bf6610bf0610ccd565b83610d84565b9050919050565b60008060006041845103610c425760008060006020870151925060408701519150606087015160001a9050610c3488828585610dc5565b955095509550505050610c52565b60006002855160001b9250925092505b9250925092565b60606000610c6683610eb9565b90506000602067ffffffffffffffff811115610c8557610c84611443565b5b6040519080825280601f01601f191660200182016040528015610cb75781602001600182028036833780820191505090505b5090508181528360208201528092505050919050565b60007f000000000000000000000000000000000000000000000000000000000000000073ffffffffffffffffffffffffffffffffffffffff163073ffffffffffffffffffffffffffffffffffffffff16148015610d4957507f000000000000000000000000000000000000000000000000000000000000000046145b15610d76577f00000000000000000000000000000000000000000000000000000000000000009050610d81565b610d7e610f09565b90505b90565b60006040517f190100000000000000000000000000000000000000000000000000000000000081528360028201528260228201526042812091505092915050565b60008060007f7fffffffffffffffffffffffffffffff5d576e7357a4501ddfe92f46681b20a08460001c1115610e05576000600385925092509250610eaf565b600060018888888860405160008152602001604052604051610e2a9493929190611957565b6020604051602081039080840390855afa158015610e4c573d6000803e3d6000fd5b505050602060405103519050600073ffffffffffffffffffffffffffffffffffffffff168173ffffffffffffffffffffffffffffffffffffffff1603610ea057600060016000801b93509350935050610eaf565b8060008060001b935093509350505b9450945094915050565b60008060ff8360001c169050601f811115610f00576040517fb3512b0c00000000000000000000000000000000000000000000000000000000815260040160405180910390fd5b80915050919050565b60007f8b73c3c69bb8fe3d512ecc4cf759cc79239f7b179b0ffacaa9a75d522b39400f7f00000000000000000000000000000000000000000000000000000000000000007f00000000000000000000000000000000000000000000000000000000000000004630604051602001610f8495949392919061199c565b60405160208183030381529060405280519060200120905090565b600080fd5b600080fd5b600080fd5b600060e08284031215610fc457610fc3610fa9565b5b81905092915050565b600060208284031215610fe357610fe2610f9f565b5b600082013567ffffffffffffffff81111561100157611000610fa4565b5b61100d84828501610fae565b91505092915050565b60008115159050919050565b61102b81611016565b82525050565b60006020820190506110466000830184611022565b92915050565b600073ffffffffffffffffffffffffffffffffffffffff82169050919050565b60006110778261104c565b9050919050565b6110878161106c565b811461109257600080fd5b50565b6000813590506110a48161107e565b92915050565b6000602082840312156110c0576110bf610f9f565b5b60006110ce84828501611095565b91505092915050565b6000819050919050565b6110ea816110d7565b82525050565b600060208201905061110560008301846110e1565b92915050565b60007fff0000000000000000000000000000000000000000000000000000000000000082169050919050565b6111408161110b565b82525050565b600081519050919050565b600082825260208201905092915050565b60005b83811015611180578082015181840152602081019050611165565b60008484015250505050565b6000601f19601f8301169050919050565b60006111a882611146565b6111b28185611151565b93506111c2818560208601611162565b6111cb8161118c565b840191505092915050565b6111df8161106c565b82525050565b6000819050919050565b6111f8816111e5565b82525050565b600081519050919050565b600082825260208201905092915050565b6000819050602082019050919050565b611233816110d7565b82525050565b6000611245838361122a565b60208301905092915050565b6000602082019050919050565b6000611269826111fe565b6112738185611209565b935061127e8361121a565b8060005b838110156112af5781516112968882611239565b97506112a183611251565b925050600181019050611282565b5085935050505092915050565b600060e0820190506112d1600083018a611137565b81810360208301526112e3818961119d565b905081810360408301526112f7818861119d565b905061130660608301876110e1565b61131360808301866111d6565b61132060a08301856111ef565b81810360c0830152611332818461125e565b905098975050505050505050565b600080fd5b600080fd5b600080fd5b60008083601f84011261136557611364611340565b5b8235905067ffffffffffffffff81111561138257611381611345565b5b60208301915083602082028301111561139e5761139d61134a565b5b9250929050565b60006113b08261104c565b9050919050565b6113c0816113a5565b81146113cb57600080fd5b50565b6000813590506113dd816113b7565b92915050565b6000806000604084860312156113fc576113fb610f9f565b5b600084013567ffffffffffffffff81111561141a57611419610fa4565b5b6114268682870161134f565b93509350506020611439868287016113ce565b9150509250925092565b7f4e487b7100000000000000000000000000000000000000000000000000000000600052604160045260246000fd5b7f4e487b7100000000000000000000000000000000000000000000000000000000600052603260045260246000fd5b600080fd5b600080fd5b600080fd5b60008235600160e0038336030381126114cc576114cb6114a1565b5b80830191505092915050565b7f4e487b7100000000000000000000000000000000000000000000000000000000600052601160045260246000fd5b6000611512826110d7565b915061151d836110d7565b9250828201905080821115611535576115346114d8565b5b92915050565b600060408201905061155060008301856110e1565b61155d60208301846110e1565b9392505050565b600065ffffffffffff82169050919050565b61157f81611564565b811461158a57600080fd5b50565b60008135905061159c81611576565b92915050565b6000602082840312156115b8576115b7610f9f565b5b60006115c68482850161158d565b91505092915050565b60006040820190506115e460008301856111d6565b6115f160208301846111d6565b9392505050565b61160181611564565b82525050565b600060208201905061161c60008301846115f8565b92915050565b6000808335600160200384360303811261163f5761163e6114a1565b5b80840192508235915067ffffffffffffffff821115611661576116606114a6565b5b60208301925060018202360383131561167d5761167c6114ab565b5b509250929050565b600081905092915050565b82818337600083830152505050565b60006116ab8385611685565b93506116b8838584611690565b82840190509392505050565b60008160601b9050919050565b60006116dc826116c4565b9050919050565b60006116ee826116d1565b9050919050565b6117066117018261106c565b6116e3565b82525050565b600061171982858761169f565b915061172582846116f5565b601482019150819050949350505050565b600060408201905061174b60008301856110e1565b6117586020830184611022565b9392505050565b50565b600061176f600083611685565b915061177a8261175f565b600082019050919050565b600061179082611762565b9150819050919050565b60006117a782848661169f565b91508190509392505050565b6000610100820190506117c9600083018b6111ef565b6117d6602083018a6111d6565b6117e360408301896111d6565b6117f060608301886110e1565b6117fd60808301876110e1565b61180a60a08301866110e1565b61181760c08301856115f8565b61182460e08301846111ef565b9998505050505050505050565b7f4e487b7100000000000000000000000000000000000000000000000000000000600052602160045260246000fd5b600060208201905061187560008301846111d6565b92915050565b7f4e487b7100000000000000000000000000000000000000000000000000000000600052602260045260246000fd5b600060028204905060018216806118c257607f821691505b6020821081036118d5576118d461187b565b5b50919050565b7f4e487b7100000000000000000000000000000000000000000000000000000000600052601260045260246000fd5b6000611915826110d7565b9150611920836110d7565b9250826119305761192f6118db565b5b828204905092915050565b600060ff82169050919050565b6119518161193b565b82525050565b600060808201905061196c60008301876111ef565b6119796020830186611948565b61198660408301856111ef565b61199360608301846111ef565b95945050505050565b600060a0820190506119b160008301886111ef565b6119be60208301876111ef565b6119cb60408301866111ef565b6119d860608301856110e1565b6119e560808301846111d6565b969550505050505056fea26469706673582212209570c390cb01f493de0b45bd53ebdc76429127841311a07248e4b549198274d764736f6c634300081c0033",
  "linkReferences": {},
  "deployedLinkReferences": {}
}